{
  "transactions": [
    {
      "hash": "0x09df52b9d882040721de9bdad70b5e8ba0c363305c9bc52228e4dbecc17eec36",
      "transactionType": "CALL",
      "contractName": null,
      "contractAddress": "0xcb56f57bf341c459cc479c9e08fcbc92e85d37b6",
      "function": "disperseEther(address[],uint256[])",
      "arguments": [
        "[0xEC2fD05a18D3C8C3E3b2455a4ED7Cb21c8A22DeD, 0xC8f9aa0ED13b08108968848D2f09e468A09F64e1, 0xFD5F9185B0590abd584B14E722DE2f0EB91219AA, 0x263e98Fd3947D4A5Ca0e0Da66a1eAb3285c1b9BF, 0x48120bf3e47eB7382603beC28B4f61a6911203A9]",
        "[10000000000000000000, 10000000000000000000, 10000000000000000000, 10000000000000000000, 10000000000000000000]"
      ],
      "transaction": {
        "from": "0x4c6a8f76620803cdd5e51f2e19f7d61785aec0be",
        "to": "0xcb56f57bf341c459cc479c9e08fcbc92e85d37b6",
        "gas": "0x47984",
        "value": "0x2b5e3af16b1880000",
        "input": "0xe63d38ed000000000000000000000000000000000000000000000000000000000000004000000000000000000000000000000000000000000000000000000000000001000000000000000000000000000000000000000000000000000000000000000005000000000000000000000000ec2fd05a18d3c8c3e3b2455a4ed7cb21c8a22ded000000000000000000000000c8f9aa0ed13b08108968848d2f09e468a09f64e1000000000000000000000000fd5f9185b0590abd584b14e722de2f0eb91219aa000000000000000000000000263e98fd3947d4a5ca0e0da66a1eab3285c1b9bf00000000000000000000000048120bf3e47eb7382603bec28b4f61a6911203a900000000000000000000000000000000000000000000000000000000000000050000000000000000000000000000000000000000000000008ac7230489e800000000000000000000000000000000000000000000000000008ac7230489e800000000000000000000000000000000000000000000000000008ac7230489e800000000000000000000000000000000000000000000000000008ac7230489e800000000000000000000000000000000000000000000000000008ac7230489e80000",
        "nonce": "0x1",
        "chainId": "0x512577"
      },
      "additionalContracts": [],
      "isFixedGasLimit": false
    }
  ],
  "receipts": [
    {
      "type": "0x2",
      "status": "0x1",
      "cumulativeGasUsed": "0x385f1",
      "logs": [],
      "logsBloom": "0x00000000000000000000000000000000000000000000000000000000000000000000000000000000000000000000000000000000000000000000000000000000000000000000000000000000000000000000000000000000000000000000000000000000000000000000000000000000000000000000000000000000000000000000000000000000000000000000000000000000000000000000000000000000000000000000000000000000000000000000000000000000000000000000000000000000000000000000000000000000000000000000000000000000000000000000000000000000000000000000000000000000000000000000000000000000",
      "transactionHash": "0x09df52b9d882040721de9bdad70b5e8ba0c363305c9bc52228e4dbecc17eec36",
      "transactionIndex": "0x1",
      "blockHash": "0xf0ba144c91b5a84cf3d5c4236cab57cecb6bed77a726adba593374269b0440e6",
      "blockNumber": "0x2cb7ab",
      "gasUsed": "0x30f43",
      "effectiveGasPrice": "0x1a13b86000",
      "from": "0x4c6a8f76620803cdd5e51f2e19f7d61785aec0be",
      "to": "0xcb56f57bf341c459cc479c9e08fcbc92e85d37b6",
      "contractAddress": null
    }
  ],
  "libraries": [],
  "pending": [],
  "returns": {},
  "timestamp": 1774884255468,
  "chain": 5318007,
  "commit": "e90832f"
}