{
  "transactions": [
    {
      "hash": "0x2148b882cf465b2ab5495ff491529ad6eab1a2b53ffc2bfc3e73f82dc90c08cf",
      "transactionType": "CALL",
      "contractName": null,
      "contractAddress": "0xd15fe25ed0dba12fe05e7029c88b10c25e8880e3",
      "function": "disperseEther(address[],uint256[])",
      "arguments": [
        "[0xEC2fD05a18D3C8C3E3b2455a4ED7Cb21c8A22DeD, 0xC8f9aa0ED13b08108968848D2f09e468A09F64e1, 0xFD5F9185B0590abd584B14E722DE2f0EB91219AA, 0x263e98Fd3947D4A5Ca0e0Da66a1eAb3285c1b9BF, 0x48120bf3e47eB7382603beC28B4f61a6911203A9]",
        "[10000000000000000000, 10000000000000000000, 10000000000000000000, 10000000000000000000, 10000000000000000000]"
      ],
      "transaction": {
        "from": "0x4c6a8f76620803cdd5e51f2e19f7d61785aec0be",
        "to": "0xd15fe25ed0dba12fe05e7029c88b10c25e8880e3",
        "gas": "0x31dee",
        "value": "0x2b5e3af16b1880000",
        "input": "0xe63d38ed000000000000000000000000000000000000000000000000000000000000004000000000000000000000000000000000000000000000000000000000000001000000000000000000000000000000000000000000000000000000000000000005000000000000000000000000ec2fd05a18d3c8c3e3b2455a4ed7cb21c8a22ded000000000000000000000000c8f9aa0ed13b08108968848d2f09e468a09f64e1000000000000000000000000fd5f9185b0590abd584b14e722de2f0eb91219aa000000000000000000000000263e98fd3947d4a5ca0e0da66a1eab3285c1b9bf00000000000000000000000048120bf3e47eb7382603bec28b4f61a6911203a900000000000000000000000000000000000000000000000000000000000000050000000000000000000000000000000000000000000000008ac7230489e800000000000000000000000000000000000000000000000000008ac7230489e800000000000000000000000000000000000000000000000000008ac7230489e800000000000000000000000000000000000000000000000000008ac7230489e800000000000000000000000000000000000000000000000000008ac7230489e80000",
        "nonce": "0x0",
        "chainId": "0xaa36a7"
      },
      "additionalContracts": [],
      "isFixedGasLimit": false
    }
  ],
  "receipts": [
    {
      "type": "0x2",
      "status": "0x1",
      "cumulativeGasUsed": "0xbb14e7",
      "logs": [],
      "logsBloom": "0x00000000000000000000000000000000000000000000000000000000000000000000000000000000000000000000000000000000000000000000000000000000000000000000000000000000000000000000000000000000000000000000000000000000000000000000000000000000000000000000000000000000000000000000000000000000000000000000000000000000000000000000000000000000000000000000000000000000000000000000000000000000000000000000000000000000000000000000000000000000000000000000000000000000000000000000000000000000000000000000000000000000000000000000000000000000",
      "transactionHash": "0x2148b882cf465b2ab5495ff491529ad6eab1a2b53ffc2bfc3e73f82dc90c08cf",
      "transactionIndex": "0x64",
      "blockHash": "0x5682d8e8b1ed901846a3f583de821169a4ea0cb12742047db10863937bc4e81d",
      "blockNumber": "0xa10980",
      "gasUsed": "0x241b0",
      "effectiveGasPrice": "0xf425f",
      "from": "0x4c6a8f76620803cdd5e51f2e19f7d61785aec0be",
      "to": "0xd15fe25ed0dba12fe05e7029c88b10c25e8880e3",
      "contractAddress": null
    }
  ],
  "libraries": [],
  "pending": [],
  "returns": {},
  "timestamp": 1774875564869,
  "chain": 11155111,
  "commit": null
}